:100000000C9434000C9451000C9453000C94510047
:100010000C9451000C9451000C9451000C9451001C
:100020000C9451000C9451000C9451000C9451000C
:100030000C9451000C9451000C9451000C945100FC
:100040000C9451000C9451000C9451000C945100EC
:100050000C9451000C9451000C9451000C945100DC
:100060000C9451000C94510011241FBECFEFD8E026
:10007000DEBFCDBF11E0A0E0B1E0E4E9FFE002C0E7
:1000800005900D92AA31B107D9F721E0AAE1B1E0BC
:1000900001C01D92A432B207E1F70E948C040C94B7
:1000A000C8070C9400008F938FB78F939F93809114
:1000B0001E0190911F01019690931F0180931E01D4
:1000C00080912201909123010196909323018093C6
:1000D00022019F918F918FBF8F9118956AE070E0F8
:1000E0000E94760520E030E06217730731F420E0CB
:1000F00030E08217930751F40895EFE3FCE931975C
:10010000F1F700C000002F5F3F4FEECFEFE9FFE0B7
:100110003197F1F700C000002F5F3F4FEACF299AD7
:1001200085E08A95F1F70000299808955F988295F7
:100130008F7080FF06C02A9A2B9A2C982D980C94C9
:100140008F002A98F9CFCF92DF92EF92FF92CF9350
:10015000C82FC82ED12CE12CF12CD701C60164E0A8
:10016000B695A795979587956A95D1F7817088235D
:1001700009F44EC02A9AD701C60155E0B695A79555
:10018000979587955A95D1F78170882309F442C0D5
:100190002B9AD701C60146E0B695A7959795879506
:1001A0004A95D1F781708823B9F12C9AC7FF36C0E0
:1001B0002D9A0E948F00C0FF33C02A9AD701C60132
:1001C000B695A795979587958170882359F12B9AB5
:1001D000D701C60122E0B695A795979587952A95F0
:1001E000D1F78170882301F12C9A83E0F694E7948B
:1001F000D794C7948A95D1F78C2D81708823B1F05C
:100200002D9ACF91FF90EF90DF90CF900C948F00BC
:100210002A98B1CF2B98BDCF2C98C8CF2D98C9CF95
:100220002A98CCCF2B98D4CF2C98DFCF2D98E9CF1C
:1002300022982398249825985F98289A299A85E0EF
:100240008A95F1F700001D9909C029980E948F0036
:10025000229A239A249A259A2898089529980E94E8
:100260008F00ECCFCF93C82F0E9418015F988C2F7E
:10027000CF910C94A300229A239A249A259A579AF4
:10028000209A219A2A982B982C982D985F98289834
:1002900029982FEF89EF90E0215080409040E1F7BE
:1002A00000C0000080E30E9496008FE39CE9019764
:1002B000F1F700C0000080E30E9496008FE99FE004
:1002C0000197F1F700C0000080E30E9496008FE9DB
:1002D0009FE00197F1F700C0000080E20E949600C5
:1002E00088E20E9432018CE00E94320186E00E9486
:1002F000320181E00C943201CF93C82F0E94180183
:100300005F9A8C2FCF910C94A30081E00C94320162
:10031000982F803158F4623048F4862F8295880FE8
:10032000880F807C892B80680C9432010895CF93CC
:10033000682F80E00E948801C1E180E20E947C0178
:10034000C150C111FACFCF9108958F929F92AF9271
:10035000BF92CF92DF92EF92FF920F931F93CF93B2
:10036000DF930E94180122982398249825985F987B
:10037000289A299A65E06A95F1F7000063B183B184
:1003800053B12998299A95E09A95F1F7000093B115
:1003900043B133B123B162FB662760F9C62F60E039
:1003A000D62F64E0CC0FDD1F6A95E1F783FBAA240A
:1003B000A0F8B12C75E0AA0CBB1C7A95E1F78C2F44
:1003C0008A2992FB992790F9892B54FBCC24C0F8F9
:1003D000D12CE6E0CC0CDD1CEA95E1F78C2943FB3F
:1003E000EE24E0F8F12CEE0CFF1C8E2934FB0027E4
:1003F00000F910E0000F111F000F111F802B25FBCB
:10040000882480F8912CB3E0880C991CBA95E1F708
:1004100088292998229A239A249A259A289890E044
:10042000803414F0805491E0DF91CF911F910F91AF
:10043000FF90EF90DF90CF90BF90AF909F908F9004
:100440000895EF92FF920F931F93CF93DF937C0158
:10045000C62F6830F8F40E94A501182F092F28E054
:10046000C29FC001112480640E943201E701C701CC
:1004700008967C0189910E947C01CE15DF05D1F799
:10048000602F812FDF91CF911F910F91FF90EF90FF
:100490000C948801DF91CF911F910F91FF90EF9005
:1004A0000895EF92FF920F931F93CF93DF937C01F8
:1004B000C62F683018F50E94A501182F092F28E0D3
:1004C000C29FC001112480640E943201E701C7016C
:1004D00008967C01E9910E2E000CFF0B84910E947E
:1004E0007C01CE15DF05B1F7602F812FDF91CF9111
:1004F0001F910F91FF90EF900C948801DF91CF91A5
:100500001F910F91FF90EF9008950E94A50108950B
:100510000E94A501892F08950C947C01CF93DF934D
:10052000EC018991811103C0DF91CF9108950E9460
:100530007C01F7CFCF93DF93EC01FE0184912196EC
:10054000811103C0DF91CF9108950E947C01F5CF06
:100550000F931F93CF93DF93CDB7DEB72C970FB6D2
:10056000F894DEBF0FBECDBF462F572FBC014115FB
:1005700051056105710569F480E32C960FB6F89476
:10058000DEBF0FBECDBFDF91CF911F910F910C94B5
:100590007C0141155105610530E8730709F4C0C0BD
:1005A000FE0133968AE0DF011D928A95E9F780E328
:1005B000898390E077FF08C07095609550954195CC
:1005C0005F4F6F4F7F4F91E080E34130BAEC5B07A4
:1005D000BAE96B07BBE37B0794F08A019B011A5CC5
:1005E0002A493B4301308AEC18078AE928078BE344
:1005F00038070CF4A0C054596543774782E38A83D7
:1006000080E321E0280F4115A1EE5A07A5EF6A0704
:10061000A5E07A070CF093C08B8380E321E0280FDC
:100620004038B6E95B07B8E96B0771050CF08CC080
:100630008C8380E321E0280F403432E453073FE00D
:10064000630771050CF086C08D8380E321E0280FDD
:10065000403AA6E85A07A1E06A0771050CF080C08D
:100660008E8380E321E0280F4031B7E25B0761050C
:1006700071050CF07BC08F8380E321E0280F483E9A
:1006800033E05307610571050CF076C0888780E37D
:1006900021E0280F44365105610571050CF072C048
:1006A000898780E321E0280F4A30510561057105F3
:1006B0000CF06EC08A87405D4B8780E0E1E0F0E09F
:1006C000EC0FFD1FE80FF11D2081203309F466C0F7
:1006D000992349F08150E1E0F0E0EC0FFD1FE80FB5
:1006E000F11D9DE290833AE0381B20E090E0E1E0CC
:1006F000F0E0EC0FFD1FE20FF11DDF01A80FB91FA5
:100700004C9140832F5F321790F7E1E0F0E0EC0F5F
:10071000FD1FE20FF11D1082CE0101960E948E0294
:100720002C960FB6F894DEBF0FBECDBFDF91CF91F0
:100730001F910F910895B901A80181E360CF515E27
:10074000654F7540822F5DCF405856496849710901
:10075000822F64CF405452446F407109822F6ACF78
:10076000405A564861407109822F70CF405157421C
:1007700061097109822F76CF485E53406109710982
:10078000822F7BCF4456510961097109822F80CF96
:100790004A50510961097109822F84CF8F5F8ECF32
:1007A000CF92DF92EF92FF920F931F93CF93DF933D
:1007B00000D000D000D0CDB7DEB76B017C01C9827C
:1007C000DA82EB82FC8289014E835D8320E030E097
:1007D000A901C701B6010E94F705811117C080E386
:1007E0000E947C018EE20E947C0180E30F900F90BA
:1007F0000F900F900F900F90DF91CF911F910F915D
:10080000FF90EF90DF90CF900C947C0120E030E0DF
:1008100040E05FEC69817A818B819C810E94560760
:1008200087FD6BC020E030E040E05FE469817A81C1
:100830008B819C810E94F70587FF5FC020E030E03C
:10084000A90169817A818B819C810E94F70587FFCC
:100850000CC089819A81AB81BC81B05889839A830D
:10086000AB83BC838DE20E947C0169817A818B819C
:100870009C810E946E060E94A8028EE20E947C016A
:1008800069817A818B819C810E9475060E94A406F1
:100890009B01AC0169817A818B819C810E948A05D0
:1008A0006B017C01B8018E819D810E94A4069B0191
:1008B000AC01C982DA82EB82FC8269817A818B8108
:1008C0009C810E945B0769837A838B839C83698107
:1008D0007A818B819C810E946E060F900F900F9001
:1008E0000F900F900F90DF91CF911F910F91FF907C
:1008F000EF90DF90CF900C94A8020F900F900F9084
:100900000F900F900F90DF91CF911F910F91FF905B
:10091000EF90DF90CF90089500D000D0CDB7DEB734
:100920000E943B0153988CE08093690082E08DBB6C
:1009300080E480937C0087EC80937A0010927B00A7
:100940001CE31092230110922201789488EE93E028
:100950000E946E00F8942091220130912301129F91
:10096000C001139F900D11249C01990F440B550B4E
:1009700029833A834B835C83CA01B9010E94A6068E
:1009800020E030E040EF50E469837A838B839C83DE
:1009900069817A818B819C810E94FC0569837A83BD
:1009A0008B839C8369817A818B819C810E946E06F6
:1009B00070930101609300010E94850160E080E076
:1009C0000E94880182E091E00E948E0280910001E5
:1009D000909101019C01990F440B550B29833A8397
:1009E0004B835C83CA01B9010E94A60622E030E075
:1009F00040E050E069837A838B839C8369817A81AC
:100A00008B819C810E94D00361E080E00E9488017C
:100A100080917A0086FD95CF30917800432F50E089
:100A20005A83498350931D0140931C0180917900A2
:100A300090E090931B0180931A018130910549F554
:100A400053955A8349838FE091E00E948E028981F9
:100A50009A818C329140A4F580E090E09C01990F3E
:100A6000440B550B29833A834B835C83CA01B9013C
:100A70000E94A80280917A00806480937A003FEF00
:100A80004BE45DE1315040405040E1F700C00000D0
:100A900058CF029729F08FE091E00E948E02DCCFC0
:100AA00049815A815E5F5A8349838FE091E00E94B9
:100AB0008E0289819A818835924074F482E30AC05B
:100AC00049815A81403981E0580774F08EE1443FF2
:100AD0005140A4F790E0C2CF29813A818CE32C3BAE
:100AE0003240C4F386E4F6CF8AE0F4CFAA1BBB1BE6
:100AF00051E107C0AA1FBB1FA617B70710F0A61B1E
:100B0000B70B881F991F5A95A9F780959095BC013E
:100B1000CD0108955058BB27AA270E94A2050C9426
:100B20001C070E940E0738F00E94150720F039F4C8
:100B30009F3F19F426F40C940B070EF4E095E7FBA5
:100B40000C940507E92F0E942D0758F3BA17620786
:100B500073078407950720F079F4A6F50C944F07E6
:100B60000EF4E0950B2EBA2FA02D0B01B9019001C8
:100B70000C01CA01A0011124FF27591B99F0593F0C
:100B800050F4503E68F11A16F040A22F232F342F54
:100B90004427585FF3CF469537952795A795F040A2
:100BA0005395C9F77EF41F16BA0B620B730B840BB7
:100BB000BAF09150A1F0FF0FBB1F661F771F881F6F
:100BC000C2F70EC0BA0F621F731F841F48F48795C7
:100BD00077956795B795F7959E3F08F0B0CF9395B9
:100BE000880F08F09927EE0F9795879508950E9432
:100BF000E10608F481E008950E9410060C941C0799
:100C00000E94150758F00E940E0740F029F45F3F3C
:100C100029F00C94050751110C9450070C940B0704
:100C20000E942D0768F39923B1F3552391F3951B87
:100C3000550BBB27AA2762177307840738F09F5FFD
:100C40005F4F220F331F441FAA1FA9F335D00E2E6A
:100C50003AF0E0E832D091505040E695001CCAF7D7
:100C60002BD0FE2F29D0660F771F881FBB1F26179A
:100C700037074807AB07B0E809F0BB0B802DBF0171
:100C8000FF2793585F4F3AF09E3F510578F00C9440
:100C900005070C9450075F3FE4F3983ED4F3869524
:100CA00077956795B795F7959F5FC9F7880F911D61
:100CB0009695879597F90895E1E0660F771F881F4D
:100CC000BB1F621773078407BA0720F0621B730B00
:100CD000840BBA0BEE1F88F7E09508950E94750605
:100CE0006894B1110C94500708950E94350788F05C
:100CF0009F5798F0B92F9927B751B0F0E1F0660FE0
:100D0000771F881F991F1AF0BA95C9F714C0B13020
:100D100091F00E944F07B1E008950C944F07672FA0
:100D2000782F8827B85F39F0B93FCCF3869577954F
:100D30006795B395D9F73EF4909580957095619538
:100D40007F4F8F4F9F4F0895E89409C097FB3EF463
:100D500090958095709561957F4F8F4F9F4F992308
:100D6000A9F0F92F96E9BB279395F6958795779586
:100D70006795B795F111F8CFFAF4BB0F11F460FF46
:100D80001BC06F5F7F4F8F4F9F4F16C0882311F09E
:100D900096E911C0772321F09EE8872F762F05C0B2
:100DA000662371F096E8862F70E060E02AF09A954D
:100DB000660F771F881FDAF7880F9695879597F942
:100DC0000895990F0008550FAA0BE0E8FEEF1616DC
:100DD0001706E807F907C0F012161306E407F5072F
:100DE00098F0621B730B840B950B39F40A2661F0A3
:100DF000232B242B252B21F408950A2609F4A14046
:100E0000A6958FEF811D811D089597F99F6780E852
:100E100070E060E008959FEF80EC089500240A944C
:100E20001616170618060906089500240A941216C5
:100E30001306140605060895092E0394000C11F4F8
:100E4000882352F0BB0F40F4BF2B11F460FF04C0A5
:100E50006F5F7F4F8F4F9F4F089557FD9058440FFE
:100E6000551F59F05F3F71F04795880F97FB991F09
:100E700061F09F3F79F087950895121613061406C6
:100E8000551FF2CF4695F1DF08C016161706180653
:100E9000991FF1CF86957105610508940895E8942E
:100EA000BB2766277727CB0197F908950E94E106B3
:100EB00008F48FEF08950E946E070C941C070E949F
:100EC0000E0738F00E94150720F0952311F00C94BE
:100ED00005070C940B0711240C9450070E942D0752
:100EE00070F3959FC1F3950F50E0551F629FF0017D
:100EF000729FBB27F00DB11D639FAA27F00DB11D96
:100F0000AA1F649F6627B00DA11D661F829F22271E
:100F1000B00DA11D621F739FB00DA11D621F839FA5
:100F2000A00D611D221F749F3327A00D611D231F7B
:100F3000849F600D211D822F762F6A2F11249F57C9
:100F400050409AF0F1F088234AF0EE0FFF1FBB1FCC
:100F5000661F771F881F91505040A9F79E3F51058B
:100F600080F00C9405070C9450075F3FE4F3983E23
:100F7000D4F3869577956795B795F795E7959F5F35
:100F8000C1F7FE2B880F911D9695879597F90895C7
:040F9000F894FFCF03
:100F94000A00466C6F77284C2F6872293A20004C5F
:0A0FA4006576656C20253A200000F8
:00000001FF
